:1000000002086BF5907FF47E01E4FDFCC3ED9FECEC
:100010009E5015E4FBFA0BBB00010AEB64794A70B1
:10002000F50DBD00010C80E4227590FF120005E47F
:05003000F5900200093B
:10080000120029900000AF82A8077401088002C37B
:1008100033D8FC120003A3E5826408458370E71215
:100820000029E4F583F582C3E5829408E58394000A
:1008300050CEAF82A8077480088002C313D8FC1280
:050840000003A380E2AB
:0C086B00787FE4F6D8FD758107020800D4
:00000001FF
