:030000000208D81B
:0C08D800787FE4F6D8FD75810F0208005F
:0A08E4004079243019120278001048
:1008B800E4FDFCC3ED9FEC9E5015E4FBFA0BBB0076
:0F08C800010AEB64794A70F50DBD00010C80E464
:0108D70022FE
:10080000E4F508F509F50A750B01F50C750D01F510
:100810000E750F0175800874E42509F5827408359A
:1008200008F583E4934480F590E509640A4508706F
:1008300021F508F50975800474E4250BF582740828
:10084000350AF583E4934480F590050BE50B7002BF
:10085000050A0509E50970020508E50B640B450A60
:100860007022F50A750B0175800274E4250DF5827E
:100870007408350CF583E4934480F590050DE50D7F
:100880007002050CE50D640B450C7022F50C750D1E
:100890000175800174E4250FF5827408350EF58327
:1008A000E4934480F590050FE50F7002050E7F6418
:0808B0007E001208B8020814D2
:00000001FF
