:0300000002086093
:0C086000787FE4F6D8FD758107020800DF
:0A083600C2818F90D2827F057E0000
:10084000E4FDFCC3ED9FEC9E5015E4FBFA0BBB00EE
:0F085000010AEB64794A70F50DBD00010C80E4DC
:01085F002276
:0A086C00C280120836C28202084062
:0A087600D280120836C28202084048
:1008000012083C7F3812086C7F0E12086C7F0112B0
:10081000086C7F681208767FF47E011208407F0121
:1008200012086C7F0F12086C7F7A1208767FF47EB4
:060830000112084080FEE9
:00000001FF
