:03000000020AD021
:0C0AD000787FE4F6D8FD75811C0209E572
:0E0AC20048656C6C6F2C20576F726C642100BD
:1009E500750848E4F509F50A7F38120A81120AE606
:1009F5007D027F01120AB3AF08120A9A7D037F02B6
:100A0500120AB37BFF7A0A79C2120A3E7D0A7F0178
:100A1500120AB37F3D7E221209647F197E00120AF5
:100A2500617D0A7F01120AB3050AE50AAE09700263
:090A3500050914FF12096480E1B7
:0A0ADC000000000000000000000010
:100A8100C280C2818F907F017E00120A61C2827F83
:090A9100017E00120A61D28222EA
:100A9A00D280C2818F907F017E00120A61C2827F5A
:090AAA00017E00120A61D28222D1
:100A3E008B0B8A0C890DAB0BAA0CA90D1208F6FFB5
:100A4E006010120A9A7401250DF50DE4350CF50CA3
:030A5E0080E4220F
:0F0AB300BF01047F8080027FC0EF4DFF020A81E8
:040964008E0B8F0C5B
:10096800E4F50DF50EF50FF510F511751204781371
:100978007C00FD7BFF7A0A79DCFE7F0A1208D0D35F
:10098800E50C9400E50B94004030AE0BAF0C7C00F6
:100998007D0A12090FE51025E02413F8A60408A61D
:1009A80005AE0BAF0C7C007D0A12090F8E0B8F0C65
:1009B8000510E51070C9050F80C5C3E51164809462
:1009C800804019E51225E02413F808E62430FF12C8
:0C09D8000A9AE512151270E2151180DE7B
:0109E40022F0
:050AE6007F01020A81FE
:100A6100E4FDFCC3ED9FEC9E5015E4FBFA0BBB00CB
:0F0A7100010AEB64794A70F50DBD00010C80E4B9
:010A80002253
:10080000E709F608DFFA8046E709F208DFFA803EDA
:1008100088828C83E709F0A3DFFA8032E309F608C7
:10082000DFFA8078E309F208DFFA807088828C832F
:10083000E309F0A3DFFA806489828A83E0A3F608E3
:10084000DFFA805889828A83E0A3F208DFFA804CBD
:1008500080D280FA80C680D4806980F28033801094
:1008600080A680EA809A80A880DA80E280CA8033FD
:1008700089828A83ECFAE493A3C8C582C8CCC58375
:10088000CCF0A3C8C582C8CCC583CCDFE9DEE78045
:100890000D89828A83E493A3F608DFF9ECFAA9F0C4
:1008A000EDFB2289828A83ECFAE0A3C8C582C8CC1A
:1008B000C583CCF0A3C8C582C8CCC583CCDFEADE33
:1008C000E880DB89828A83E493A3F208DFF980CC95
:1008D00088F0EF60010E4E60C388F0ED2402B4048E
:1008E0000050B9F582EB2402B4040050AF23234535
:0608F00082239008507302
:1008F600BB010689828A83E0225002E722BBFE0200
:09090600E32289828A83E4932232
:10090F00BC000BBE0029EF8DF084FFADF022E4CCCC
:10091F00F875F008EF2FFFEE33FEEC33FCEE9DEC95
:10092F00984005FCEE9DFE0FD5F0E9E4CEFD22EDDB
:10093F00F8F5F0EE8420D21CFEADF075F008EF2F25
:10094F00FFED33FD4007985006D5F0F222C398FD16
:05095F000FD5F0EA22B3
:00000001FF
