:03000000020A2BC6
:0C0A2B00787FE4F6D8FD75813A020A726B
:100800000D0A2D2D2D205B544553545D2045636802
:100810006F204C6F6F702041637469766520285398
:10082000656E6420352063686172616374657273FC
:100830002066726F6D20504329202D2D2D0D0A004A
:100840005265636569766564204845583A20002002
:100850007C2041534349493A202700270D0A000DC7
:100860000A2D2D2D205B544553545D20546573741F
:10087000696E6720393630302042617564205261DC
:100880007465202D2D2D0D0A00393630302042613F
:100890007564204F4B210D0A000D0A2D2D2D205B74
:1008A000544553545D2054657374696E6720313923
:1008B00032303020426175642052617465202853C3
:1008C0004D4F44203D203129202D2D2D0D0A003182
:1008D000393230302042617564204F4B210D0A00BF
:1008E0000D0A3D3D3D3D3D3D3D3D3D3D3D3D3D3D9B
:1008F0003D3D2055415254204D45545249435320CB
:100900003D3D3D3D3D3D3D3D3D3D3D3D3D3D3D3D17
:100910000D0A005458204279746520436F756E7437
:10092000203A20000D0A5258204279746520436F06
:10093000756E74203A20000D0A4649464F204F76C6
:100940006572666C6F77203A200059455320284520
:1009500072726F7229004E4F20284F4B29000D0AEA
:100960003D3D3D3D3D3D3D3D3D3D3D3D3D3D3D3DB7
:100970003D3D3D3D3D3D3D3D3D3D3D3D3D3D3D3DA7
:100980003D3D3D3D3D3D3D3D3D3D3D3D3D0D0A0037
:1009900020204E75766F746F6E205737384530358E
:1009A0003244205541525420546573742052756E60
:1009B0006E657220537461727465642020200D0A84
:1009C000003D3D3D3D3D3D3D3D3D3D3D3D3D3D3D94
:1009D0003D3D3D3D3D3D3D3D3D3D3D3D3D3D3D3D47
:1009E0003D3D3D3D3D3D3D3D3D3D3D3D3D3D0D0A9A
:1009F000000D0A5B494E464F5D20546573742053C9
:100A00007569746520436F6D706C6574652E204543
:100A10006E746572696E67204C6F6F706261636B94
:0B0A2000204D6F64652E2E2E0D0A0085
:100BEC0020231200000000000000000000000000A4
:100BFC0000000000000000000000000000000000E9
:100C0C000000000000000A080000000000000000C6
:020C1C000000D6
:090B06007BFF7A0879001200005F
:100B0F00E4F53AE53AC39405503A7B007A00793719
:100B1F00120000EF4E60ECE538F5397BFF7A08796B
:100B2F0040120000AF391200007BFF7A08794F1294
:100B3F000000AF391200007BFF7A08795B120000CA
:040B4F00053A80BF24
:010B5300227F
:100BA2007BFF7A08795F120000E4F5007F807E25E2
:100BB200FDFC1200007BFF7A0879891200007BFF9E
:100BC2007A0879991200007500017F807E257D00E8
:100BD2007C001200007BFF7A0879CF120000E4F556
:0A0BE200007F807E25FDFC0200006C
:100B54007BFF7A0879E01200007BFF7A097913128F
:100B64000000AE0EAF0F1200007BFF7A0979241249
:100B74000000AE0AAF0B1200007BFF7A097937122E
:100B84000000E5347BFF60067A09794A80047A091B
:0E0B940079561200007BFF7A09795E0200009C
:100AB700E4F5007F807E25FDFC1200007BFF7A09AC
:100AC700795E1200007BFF7A0979901200007BFFA4
:100AD7007A0979C1120000120BA2120B06120B54ED
:090AE7007BFF7A0979F11200008D
:100AF0007B007A007935120000EF4E60F3AF36E5E7
:040B000036120000A9
:020B040080EA85
:100C1F00E4FDFCC3ED9FEC9E5015E4FBFA0BBB000B
:0F0C2F00010AEB64794A70F50DBD00010C80E4F9
:010C3E002293
:100A3700020AB7E493A3F8E493A34003F68001F214
:100A470008DFF48029E493A3F85407240CC8C333C0
:100A5700C4540F4420C8834004F456800146F6DF8F
:100A6700E4800B0102040810204080900BECE47E28
:100A7700019360BCA3FF543F30E509541FFEE49384
:100A8700A360010ECF54C025E060A840B8E493A34B
:100A9700FAE493A3F8E493A3C8C582C8CAC583CA76
:100AA700F0A3C8C582C8CAC583CADFE9DEE780BE2E
:010C1E0000D5
:00000001FF
